{
  "_format": "hh-sol-artifact-1",
  "contractName": "BorrowAndSwap",
  "sourceName": "contracts/BorrowAndSwap.sol",
  "abi": [
    {
      "inputs": [
        {
          "internalType": "address",
          "name": "_addressProvider",
          "type": "address"
        },
        {
          "internalType": "address",
          "name": "_uniswapRouter",
          "type": "address"
        },
        {
          "internalType": "address",
          "name": "_sushiSwapRouter",
          "type": "address"
        }
      ],
      "stateMutability": "nonpayable",
      "type": "constructor"
    },
    {
      "inputs": [],
      "name": "ADDRESSES_PROVIDER",
      "outputs": [
        {
          "internalType": "contract IPoolAddressesProvider",
          "name": "",
          "type": "address"
        }
      ],
      "stateMutability": "view",
      "type": "function"
    },
    {
      "inputs": [],
      "name": "POOL",
      "outputs": [
        {
          "internalType": "contract IPool",
          "name": "",
          "type": "address"
        }
      ],
      "stateMutability": "view",
      "type": "function"
    },
    {
      "inputs": [
        {
          "internalType": "address",
          "name": "asset",
          "type": "address"
        },
        {
          "internalType": "uint256",
          "name": "amount",
          "type": "uint256"
        },
        {
          "internalType": "uint256",
          "name": "premium",
          "type": "uint256"
        },
        {
          "internalType": "address",
          "name": "initiator",
          "type": "address"
        },
        {
          "internalType": "bytes",
          "name": "params",
          "type": "bytes"
        }
      ],
      "name": "executeOperation",
      "outputs": [
        {
          "internalType": "bool",
          "name": "",
          "type": "bool"
        }
      ],
      "stateMutability": "nonpayable",
      "type": "function"
    },
    {
      "inputs": [
        {
          "internalType": "address",
          "name": "_tokenAddress",
          "type": "address"
        }
      ],
      "name": "getBalance",
      "outputs": [
        {
          "internalType": "uint256",
          "name": "",
          "type": "uint256"
        }
      ],
      "stateMutability": "view",
      "type": "function"
    },
    {
      "inputs": [
        {
          "internalType": "uint256",
          "name": "_amount",
          "type": "uint256"
        },
        {
          "internalType": "uint256",
          "name": "amountOutExpected",
          "type": "uint256"
        },
        {
          "internalType": "uint256",
          "name": "amountOutExpected2",
          "type": "uint256"
        },
        {
          "internalType": "address",
          "name": "coin1",
          "type": "address"
        },
        {
          "internalType": "address",
          "name": "coin2",
          "type": "address"
        }
      ],
      "name": "requestFlashLoan",
      "outputs": [],
      "stateMutability": "nonpayable",
      "type": "function"
    },
    {
      "inputs": [
        {
          "internalType": "address",
          "name": "_tokenAddress",
          "type": "address"
        }
      ],
      "name": "withdraw",
      "outputs": [],
      "stateMutability": "nonpayable",
      "type": "function"
    }
  ],
  "bytecode": "0x60c06040523480156200001157600080fd5b50604051620017b1380380620017b1833981810160405281019062000037919062000247565b828073ffffffffffffffffffffffffffffffffffffffff1660808173ffffffffffffffffffffffffffffffffffffffff16815250508073ffffffffffffffffffffffffffffffffffffffff1663026b1d5f6040518163ffffffff1660e01b8152600401602060405180830381865afa158015620000b8573d6000803e3d6000fd5b505050506040513d601f19601f82011682018060405250810190620000de9190620002a3565b73ffffffffffffffffffffffffffffffffffffffff1660a08173ffffffffffffffffffffffffffffffffffffffff168152505050816000806101000a81548173ffffffffffffffffffffffffffffffffffffffff021916908373ffffffffffffffffffffffffffffffffffffffff16021790555080600160006101000a81548173ffffffffffffffffffffffffffffffffffffffff021916908373ffffffffffffffffffffffffffffffffffffffff16021790555033600260006101000a81548173ffffffffffffffffffffffffffffffffffffffff021916908373ffffffffffffffffffffffffffffffffffffffff160217905550505050620002d5565b600080fd5b600073ffffffffffffffffffffffffffffffffffffffff82169050919050565b60006200020f82620001e2565b9050919050565b620002218162000202565b81146200022d57600080fd5b50565b600081519050620002418162000216565b92915050565b600080600060608486031215620002635762000262620001dd565b5b6000620002738682870162000230565b9350506020620002868682870162000230565b9250506040620002998682870162000230565b9150509250925092565b600060208284031215620002bc57620002bb620001dd565b5b6000620002cc8482850162000230565b91505092915050565b60805160a0516114a862000309600039600081816101be015281816108d501526109310152600061013d01526114a86000f3fe608060405234801561001057600080fd5b50600436106100625760003560e01c80630542975c146100675780631b11d0ff1461008557806351cff8d9146100b55780637535d246146100d15780637ec7a5ce146100ef578063f8b2cb4f1461010b575b600080fd5b61006f61013b565b60405161007c9190610ad0565b60405180910390f35b61009f600480360381019061009a9190610bd8565b61015f565b6040516100ac9190610c8d565b60405180910390f35b6100cf60048036038101906100ca9190610ca8565b610742565b005b6100d96108d3565b6040516100e69190610cf6565b60405180910390f35b61010960048036038101906101049190610d11565b6108f7565b005b61012560048036038101906101209190610ca8565b6109ce565b6040516101329190610d9b565b60405180910390f35b7f000000000000000000000000000000000000000000000000000000000000000081565b60008060008085858101906101749190610df4565b92509250925060008a9050600060644261018e9190610e76565b905060008a8c61019e9190610e76565b90508c73ffffffffffffffffffffffffffffffffffffffff1663095ea7b37f0000000000000000000000000000000000000000000000000000000000000000836040518363ffffffff1660e01b81526004016101fb929190610edb565b6020604051808303816000875af115801561021a573d6000803e3d6000fd5b505050506040513d601f19601f8201168201806040525081019061023e9190610f30565b508273ffffffffffffffffffffffffffffffffffffffff1663095ea7b3600160009054906101000a900473ffffffffffffffffffffffffffffffffffffffff168e6040518363ffffffff1660e01b815260040161029c929190610edb565b6020604051808303816000875af11580156102bb573d6000803e3d6000fd5b505050506040513d601f19601f820116820180604052508101906102df9190610f30565b506000600267ffffffffffffffff8111156102fd576102fc610f5d565b5b60405190808252806020026020018201604052801561032b5781602001602082028036833780820191505090505b509050838160008151811061034357610342610f8c565b5b602002602001019073ffffffffffffffffffffffffffffffffffffffff16908173ffffffffffffffffffffffffffffffffffffffff1681525050868160018151811061039257610391610f8c565b5b602002602001019073ffffffffffffffffffffffffffffffffffffffff16908173ffffffffffffffffffffffffffffffffffffffff1681525050600160009054906101000a900473ffffffffffffffffffffffffffffffffffffffff1673ffffffffffffffffffffffffffffffffffffffff166338ed17398e888430886040518663ffffffff1660e01b815260040161042f959493929190611079565b6000604051808303816000875af115801561044e573d6000803e3d6000fd5b505050506040513d6000823e3d601f19601f820116820180604052508101906104779190611208565b5060008773ffffffffffffffffffffffffffffffffffffffff166370a08231306040518263ffffffff1660e01b81526004016104b39190611251565b602060405180830381865afa1580156104d0573d6000803e3d6000fd5b505050506040513d601f19601f820116820180604052508101906104f4919061126c565b90508773ffffffffffffffffffffffffffffffffffffffff1663095ea7b360008054906101000a900473ffffffffffffffffffffffffffffffffffffffff16836040518363ffffffff1660e01b8152600401610551929190610edb565b6020604051808303816000875af1158015610570573d6000803e3d6000fd5b505050506040513d601f19601f820116820180604052508101906105949190610f30565b506000600267ffffffffffffffff8111156105b2576105b1610f5d565b5b6040519080825280602002602001820160405280156105e05781602001602082028036833780820191505090505b50905088816000815181106105f8576105f7610f8c565b5b602002602001019073ffffffffffffffffffffffffffffffffffffffff16908173ffffffffffffffffffffffffffffffffffffffff1681525050858160018151811061064757610646610f8c565b5b602002602001019073ffffffffffffffffffffffffffffffffffffffff16908173ffffffffffffffffffffffffffffffffffffffff168152505060008054906101000a900473ffffffffffffffffffffffffffffffffffffffff1673ffffffffffffffffffffffffffffffffffffffff166338ed1739838984308a6040518663ffffffff1660e01b81526004016106e2959493929190611079565b6000604051808303816000875af1158015610701573d6000803e3d6000fd5b505050506040513d6000823e3d601f19601f8201168201806040525081019061072a9190611208565b50600199505050505050505050509695505050505050565b600260009054906101000a900473ffffffffffffffffffffffffffffffffffffffff1673ffffffffffffffffffffffffffffffffffffffff163373ffffffffffffffffffffffffffffffffffffffff16146107d2576040517f08c379a00000000000000000000000000000000000000000000000000000000081526004016107c99061131c565b60405180910390fd5b60008190508073ffffffffffffffffffffffffffffffffffffffff1663a9059cbb338373ffffffffffffffffffffffffffffffffffffffff166370a08231306040518263ffffffff1660e01b815260040161082d9190611251565b602060405180830381865afa15801561084a573d6000803e3d6000fd5b505050506040513d601f19601f8201168201806040525081019061086e919061126c565b6040518363ffffffff1660e01b815260040161088b929190610edb565b6020604051808303816000875af11580156108aa573d6000803e3d6000fd5b505050506040513d601f19601f820116820180604052508101906108ce9190610f30565b505050565b7f000000000000000000000000000000000000000000000000000000000000000081565b60003090506000839050600087905060008085898960405160200161091e9392919061133c565b60405160208183030381529060405290507f000000000000000000000000000000000000000000000000000000000000000073ffffffffffffffffffffffffffffffffffffffff166342b0b77c86868685876040518663ffffffff1660e01b8152600401610990959493929190611418565b600060405180830381600087803b1580156109aa57600080fd5b505af11580156109be573d6000803e3d6000fd5b5050505050505050505050505050565b60008173ffffffffffffffffffffffffffffffffffffffff166370a08231306040518263ffffffff1660e01b8152600401610a099190611251565b602060405180830381865afa158015610a26573d6000803e3d6000fd5b505050506040513d601f19601f82011682018060405250810190610a4a919061126c565b9050919050565b600073ffffffffffffffffffffffffffffffffffffffff82169050919050565b6000819050919050565b6000610a96610a91610a8c84610a51565b610a71565b610a51565b9050919050565b6000610aa882610a7b565b9050919050565b6000610aba82610a9d565b9050919050565b610aca81610aaf565b82525050565b6000602082019050610ae56000830184610ac1565b92915050565b6000604051905090565b600080fd5b600080fd5b6000610b0a82610a51565b9050919050565b610b1a81610aff565b8114610b2557600080fd5b50565b600081359050610b3781610b11565b92915050565b6000819050919050565b610b5081610b3d565b8114610b5b57600080fd5b50565b600081359050610b6d81610b47565b92915050565b600080fd5b600080fd5b600080fd5b60008083601f840112610b9857610b97610b73565b5b8235905067ffffffffffffffff811115610bb557610bb4610b78565b5b602083019150836001820283011115610bd157610bd0610b7d565b5b9250929050565b60008060008060008060a08789031215610bf557610bf4610af5565b5b6000610c0389828a01610b28565b9650506020610c1489828a01610b5e565b9550506040610c2589828a01610b5e565b9450506060610c3689828a01610b28565b935050608087013567ffffffffffffffff811115610c5757610c56610afa565b5b610c6389828a01610b82565b92509250509295509295509295565b60008115159050919050565b610c8781610c72565b82525050565b6000602082019050610ca26000830184610c7e565b92915050565b600060208284031215610cbe57610cbd610af5565b5b6000610ccc84828501610b28565b91505092915050565b6000610ce082610a9d565b9050919050565b610cf081610cd5565b82525050565b6000602082019050610d0b6000830184610ce7565b92915050565b600080600080600060a08688031215610d2d57610d2c610af5565b5b6000610d3b88828901610b5e565b9550506020610d4c88828901610b5e565b9450506040610d5d88828901610b5e565b9350506060610d6e88828901610b28565b9250506080610d7f88828901610b28565b9150509295509295909350565b610d9581610b3d565b82525050565b6000602082019050610db06000830184610d8c565b92915050565b6000610dc182610a51565b9050919050565b610dd181610db6565b8114610ddc57600080fd5b50565b600081359050610dee81610dc8565b92915050565b600080600060608486031215610e0d57610e0c610af5565b5b6000610e1b86828701610ddf565b9350506020610e2c86828701610b5e565b9250506040610e3d86828701610b5e565b9150509250925092565b7f4e487b7100000000000000000000000000000000000000000000000000000000600052601160045260246000fd5b6000610e8182610b3d565b9150610e8c83610b3d565b9250827fffffffffffffffffffffffffffffffffffffffffffffffffffffffffffffffff03821115610ec157610ec0610e47565b5b828201905092915050565b610ed581610aff565b82525050565b6000604082019050610ef06000830185610ecc565b610efd6020830184610d8c565b9392505050565b610f0d81610c72565b8114610f1857600080fd5b50565b600081519050610f2a81610f04565b92915050565b600060208284031215610f4657610f45610af5565b5b6000610f5484828501610f1b565b91505092915050565b7f4e487b7100000000000000000000000000000000000000000000000000000000600052604160045260246000fd5b7f4e487b7100000000000000000000000000000000000000000000000000000000600052603260045260246000fd5b600081519050919050565b600082825260208201905092915050565b6000819050602082019050919050565b610ff081610aff565b82525050565b60006110028383610fe7565b60208301905092915050565b6000602082019050919050565b600061102682610fbb565b6110308185610fc6565b935061103b83610fd7565b8060005b8381101561106c5781516110538882610ff6565b975061105e8361100e565b92505060018101905061103f565b5085935050505092915050565b600060a08201905061108e6000830188610d8c565b61109b6020830187610d8c565b81810360408301526110ad818661101b565b90506110bc6060830185610ecc565b6110c96080830184610d8c565b9695505050505050565b6000601f19601f8301169050919050565b6110ed826110d3565b810181811067ffffffffffffffff8211171561110c5761110b610f5d565b5b80604052505050565b600061111f610aeb565b905061112b82826110e4565b919050565b600067ffffffffffffffff82111561114b5761114a610f5d565b5b602082029050602081019050919050565b60008151905061116b81610b47565b92915050565b600061118461117f84611130565b611115565b905080838252602082019050602084028301858111156111a7576111a6610b7d565b5b835b818110156111d057806111bc888261115c565b8452602084019350506020810190506111a9565b5050509392505050565b600082601f8301126111ef576111ee610b73565b5b81516111ff848260208601611171565b91505092915050565b60006020828403121561121e5761121d610af5565b5b600082015167ffffffffffffffff81111561123c5761123b610afa565b5b611248848285016111da565b91505092915050565b60006020820190506112666000830184610ecc565b92915050565b60006020828403121561128257611281610af5565b5b60006112908482850161115c565b91505092915050565b600082825260208201905092915050565b7f4f6e6c792074686520636f6e7472616374206f776e65722063616e2063616c6c60008201527f20746869732066756e6374696f6e000000000000000000000000000000000000602082015250565b6000611306602e83611299565b9150611311826112aa565b604082019050919050565b60006020820190508181036000830152611335816112f9565b9050919050565b60006060820190506113516000830186610ecc565b61135e6020830185610d8c565b61136b6040830184610d8c565b949350505050565b600081519050919050565b600082825260208201905092915050565b60005b838110156113ad578082015181840152602081019050611392565b838111156113bc576000848401525b50505050565b60006113cd82611373565b6113d7818561137e565b93506113e781856020860161138f565b6113f0816110d3565b840191505092915050565b600061ffff82169050919050565b611412816113fb565b82525050565b600060a08201905061142d6000830188610ecc565b61143a6020830187610ecc565b6114476040830186610d8c565b818103606083015261145981856113c2565b90506114686080830184611409565b969550505050505056fea2646970667358221220a955f2d5394d867c5ffa3cb92326d5ea7efbe859b934bd7e648641120893e3ca64736f6c634300080a0033",
  "linkReferences": {},
  "deployedLinkReferences": {}
}