{
  "_format": "hh-sol-artifact-1",
  "contractName": "BorrowAndSwap",
  "sourceName": "contracts/BorrowAndSwap.sol",
  "abi": [
    {
      "inputs": [
        {
          "internalType": "address",
          "name": "_addressProvider",
          "type": "address"
        },
        {
          "internalType": "address",
          "name": "_uniswapRouter",
          "type": "address"
        },
        {
          "internalType": "address",
          "name": "_sushiSwapRouter",
          "type": "address"
        }
      ],
      "stateMutability": "nonpayable",
      "type": "constructor"
    },
    {
      "inputs": [],
      "name": "ADDRESSES_PROVIDER",
      "outputs": [
        {
          "internalType": "contract IPoolAddressesProvider",
          "name": "",
          "type": "address"
        }
      ],
      "stateMutability": "view",
      "type": "function"
    },
    {
      "inputs": [],
      "name": "POOL",
      "outputs": [
        {
          "internalType": "contract IPool",
          "name": "",
          "type": "address"
        }
      ],
      "stateMutability": "view",
      "type": "function"
    },
    {
      "inputs": [
        {
          "internalType": "address",
          "name": "asset",
          "type": "address"
        },
        {
          "internalType": "uint256",
          "name": "amount",
          "type": "uint256"
        },
        {
          "internalType": "uint256",
          "name": "premium",
          "type": "uint256"
        },
        {
          "internalType": "address",
          "name": "initiator",
          "type": "address"
        },
        {
          "internalType": "bytes",
          "name": "params",
          "type": "bytes"
        }
      ],
      "name": "executeOperation",
      "outputs": [
        {
          "internalType": "bool",
          "name": "",
          "type": "bool"
        }
      ],
      "stateMutability": "nonpayable",
      "type": "function"
    },
    {
      "inputs": [
        {
          "internalType": "address",
          "name": "_tokenAddress",
          "type": "address"
        }
      ],
      "name": "getBalance",
      "outputs": [
        {
          "internalType": "uint256",
          "name": "",
          "type": "uint256"
        }
      ],
      "stateMutability": "view",
      "type": "function"
    },
    {
      "inputs": [
        {
          "internalType": "uint256",
          "name": "_amount",
          "type": "uint256"
        },
        {
          "internalType": "uint256",
          "name": "amountOutExpected",
          "type": "uint256"
        },
        {
          "internalType": "uint256",
          "name": "amountOutExpected2",
          "type": "uint256"
        },
        {
          "internalType": "address",
          "name": "coin1",
          "type": "address"
        },
        {
          "internalType": "address",
          "name": "coin2",
          "type": "address"
        }
      ],
      "name": "requestFlashLoan",
      "outputs": [],
      "stateMutability": "nonpayable",
      "type": "function"
    },
    {
      "inputs": [
        {
          "internalType": "address",
          "name": "_tokenAddress",
          "type": "address"
        }
      ],
      "name": "withdraw",
      "outputs": [],
      "stateMutability": "nonpayable",
      "type": "function"
    }
  ],
  "bytecode": "0x60c06040523480156200001157600080fd5b50604051620017ee380380620017ee833981810160405281019062000037919062000247565b828073ffffffffffffffffffffffffffffffffffffffff1660808173ffffffffffffffffffffffffffffffffffffffff16815250508073ffffffffffffffffffffffffffffffffffffffff1663026b1d5f6040518163ffffffff1660e01b8152600401602060405180830381865afa158015620000b8573d6000803e3d6000fd5b505050506040513d601f19601f82011682018060405250810190620000de9190620002a3565b73ffffffffffffffffffffffffffffffffffffffff1660a08173ffffffffffffffffffffffffffffffffffffffff168152505050816000806101000a81548173ffffffffffffffffffffffffffffffffffffffff021916908373ffffffffffffffffffffffffffffffffffffffff16021790555080600160006101000a81548173ffffffffffffffffffffffffffffffffffffffff021916908373ffffffffffffffffffffffffffffffffffffffff16021790555033600260006101000a81548173ffffffffffffffffffffffffffffffffffffffff021916908373ffffffffffffffffffffffffffffffffffffffff160217905550505050620002d5565b600080fd5b600073ffffffffffffffffffffffffffffffffffffffff82169050919050565b60006200020f82620001e2565b9050919050565b620002218162000202565b81146200022d57600080fd5b50565b600081519050620002418162000216565b92915050565b600080600060608486031215620002635762000262620001dd565b5b6000620002738682870162000230565b9350506020620002868682870162000230565b9250506040620002998682870162000230565b9150509250925092565b600060208284031215620002bc57620002bb620001dd565b5b6000620002cc8482850162000230565b91505092915050565b60805160a0516114e562000309600039600081816101be015281816108d701526109330152600061013d01526114e56000f3fe608060405234801561001057600080fd5b50600436106100625760003560e01c80630542975c146100675780631b11d0ff1461008557806351cff8d9146100b55780637535d246146100d15780637ec7a5ce146100ef578063f8b2cb4f1461010b575b600080fd5b61006f61013b565b60405161007c9190610ad2565b60405180910390f35b61009f600480360381019061009a9190610bda565b61015f565b6040516100ac9190610c8f565b60405180910390f35b6100cf60048036038101906100ca9190610caa565b610744565b005b6100d96108d5565b6040516100e69190610cf8565b60405180910390f35b61010960048036038101906101049190610d13565b6108f9565b005b61012560048036038101906101209190610caa565b6109d0565b6040516101329190610d9d565b60405180910390f35b7f000000000000000000000000000000000000000000000000000000000000000081565b60008060008085858101906101749190610df6565b92509250925060008a9050600060644261018e9190610e78565b905060008a8c61019e9190610e78565b90508c73ffffffffffffffffffffffffffffffffffffffff1663095ea7b37f0000000000000000000000000000000000000000000000000000000000000000836040518363ffffffff1660e01b81526004016101fb929190610edd565b6020604051808303816000875af115801561021a573d6000803e3d6000fd5b505050506040513d601f19601f8201168201806040525081019061023e9190610f32565b508273ffffffffffffffffffffffffffffffffffffffff1663095ea7b3600160009054906101000a900473ffffffffffffffffffffffffffffffffffffffff168e6040518363ffffffff1660e01b815260040161029c929190610edd565b6020604051808303816000875af11580156102bb573d6000803e3d6000fd5b505050506040513d601f19601f820116820180604052508101906102df9190610f32565b506000600267ffffffffffffffff8111156102fd576102fc610f5f565b5b60405190808252806020026020018201604052801561032b5781602001602082028036833780820191505090505b509050838160008151811061034357610342610f8e565b5b602002602001019073ffffffffffffffffffffffffffffffffffffffff16908173ffffffffffffffffffffffffffffffffffffffff1681525050868160018151811061039257610391610f8e565b5b602002602001019073ffffffffffffffffffffffffffffffffffffffff16908173ffffffffffffffffffffffffffffffffffffffff1681525050600160009054906101000a900473ffffffffffffffffffffffffffffffffffffffff1673ffffffffffffffffffffffffffffffffffffffff166338ed17398e60008430886040518663ffffffff1660e01b81526004016104309594939291906110b6565b6000604051808303816000875af115801561044f573d6000803e3d6000fd5b505050506040513d6000823e3d601f19601f820116820180604052508101906104789190611245565b5060008773ffffffffffffffffffffffffffffffffffffffff166370a08231306040518263ffffffff1660e01b81526004016104b4919061128e565b602060405180830381865afa1580156104d1573d6000803e3d6000fd5b505050506040513d601f19601f820116820180604052508101906104f591906112a9565b90508773ffffffffffffffffffffffffffffffffffffffff1663095ea7b360008054906101000a900473ffffffffffffffffffffffffffffffffffffffff16836040518363ffffffff1660e01b8152600401610552929190610edd565b6020604051808303816000875af1158015610571573d6000803e3d6000fd5b505050506040513d601f19601f820116820180604052508101906105959190610f32565b506000600267ffffffffffffffff8111156105b3576105b2610f5f565b5b6040519080825280602002602001820160405280156105e15781602001602082028036833780820191505090505b50905088816000815181106105f9576105f8610f8e565b5b602002602001019073ffffffffffffffffffffffffffffffffffffffff16908173ffffffffffffffffffffffffffffffffffffffff1681525050858160018151811061064857610647610f8e565b5b602002602001019073ffffffffffffffffffffffffffffffffffffffff16908173ffffffffffffffffffffffffffffffffffffffff168152505060008054906101000a900473ffffffffffffffffffffffffffffffffffffffff1673ffffffffffffffffffffffffffffffffffffffff166338ed173983600084308a6040518663ffffffff1660e01b81526004016106e49594939291906110b6565b6000604051808303816000875af1158015610703573d6000803e3d6000fd5b505050506040513d6000823e3d601f19601f8201168201806040525081019061072c9190611245565b50600199505050505050505050509695505050505050565b600260009054906101000a900473ffffffffffffffffffffffffffffffffffffffff1673ffffffffffffffffffffffffffffffffffffffff163373ffffffffffffffffffffffffffffffffffffffff16146107d4576040517f08c379a00000000000000000000000000000000000000000000000000000000081526004016107cb90611359565b60405180910390fd5b60008190508073ffffffffffffffffffffffffffffffffffffffff1663a9059cbb338373ffffffffffffffffffffffffffffffffffffffff166370a08231306040518263ffffffff1660e01b815260040161082f919061128e565b602060405180830381865afa15801561084c573d6000803e3d6000fd5b505050506040513d601f19601f8201168201806040525081019061087091906112a9565b6040518363ffffffff1660e01b815260040161088d929190610edd565b6020604051808303816000875af11580156108ac573d6000803e3d6000fd5b505050506040513d601f19601f820116820180604052508101906108d09190610f32565b505050565b7f000000000000000000000000000000000000000000000000000000000000000081565b60003090506000839050600087905060008085898960405160200161092093929190611379565b60405160208183030381529060405290507f000000000000000000000000000000000000000000000000000000000000000073ffffffffffffffffffffffffffffffffffffffff166342b0b77c86868685876040518663ffffffff1660e01b8152600401610992959493929190611455565b600060405180830381600087803b1580156109ac57600080fd5b505af11580156109c0573d6000803e3d6000fd5b5050505050505050505050505050565b60008173ffffffffffffffffffffffffffffffffffffffff166370a08231306040518263ffffffff1660e01b8152600401610a0b919061128e565b602060405180830381865afa158015610a28573d6000803e3d6000fd5b505050506040513d601f19601f82011682018060405250810190610a4c91906112a9565b9050919050565b600073ffffffffffffffffffffffffffffffffffffffff82169050919050565b6000819050919050565b6000610a98610a93610a8e84610a53565b610a73565b610a53565b9050919050565b6000610aaa82610a7d565b9050919050565b6000610abc82610a9f565b9050919050565b610acc81610ab1565b82525050565b6000602082019050610ae76000830184610ac3565b92915050565b6000604051905090565b600080fd5b600080fd5b6000610b0c82610a53565b9050919050565b610b1c81610b01565b8114610b2757600080fd5b50565b600081359050610b3981610b13565b92915050565b6000819050919050565b610b5281610b3f565b8114610b5d57600080fd5b50565b600081359050610b6f81610b49565b92915050565b600080fd5b600080fd5b600080fd5b60008083601f840112610b9a57610b99610b75565b5b8235905067ffffffffffffffff811115610bb757610bb6610b7a565b5b602083019150836001820283011115610bd357610bd2610b7f565b5b9250929050565b60008060008060008060a08789031215610bf757610bf6610af7565b5b6000610c0589828a01610b2a565b9650506020610c1689828a01610b60565b9550506040610c2789828a01610b60565b9450506060610c3889828a01610b2a565b935050608087013567ffffffffffffffff811115610c5957610c58610afc565b5b610c6589828a01610b84565b92509250509295509295509295565b60008115159050919050565b610c8981610c74565b82525050565b6000602082019050610ca46000830184610c80565b92915050565b600060208284031215610cc057610cbf610af7565b5b6000610cce84828501610b2a565b91505092915050565b6000610ce282610a9f565b9050919050565b610cf281610cd7565b82525050565b6000602082019050610d0d6000830184610ce9565b92915050565b600080600080600060a08688031215610d2f57610d2e610af7565b5b6000610d3d88828901610b60565b9550506020610d4e88828901610b60565b9450506040610d5f88828901610b60565b9350506060610d7088828901610b2a565b9250506080610d8188828901610b2a565b9150509295509295909350565b610d9781610b3f565b82525050565b6000602082019050610db26000830184610d8e565b92915050565b6000610dc382610a53565b9050919050565b610dd381610db8565b8114610dde57600080fd5b50565b600081359050610df081610dca565b92915050565b600080600060608486031215610e0f57610e0e610af7565b5b6000610e1d86828701610de1565b9350506020610e2e86828701610b60565b9250506040610e3f86828701610b60565b9150509250925092565b7f4e487b7100000000000000000000000000000000000000000000000000000000600052601160045260246000fd5b6000610e8382610b3f565b9150610e8e83610b3f565b9250827fffffffffffffffffffffffffffffffffffffffffffffffffffffffffffffffff03821115610ec357610ec2610e49565b5b828201905092915050565b610ed781610b01565b82525050565b6000604082019050610ef26000830185610ece565b610eff6020830184610d8e565b9392505050565b610f0f81610c74565b8114610f1a57600080fd5b50565b600081519050610f2c81610f06565b92915050565b600060208284031215610f4857610f47610af7565b5b6000610f5684828501610f1d565b91505092915050565b7f4e487b7100000000000000000000000000000000000000000000000000000000600052604160045260246000fd5b7f4e487b7100000000000000000000000000000000000000000000000000000000600052603260045260246000fd5b6000819050919050565b6000610fe2610fdd610fd884610fbd565b610a73565b610b3f565b9050919050565b610ff281610fc7565b82525050565b600081519050919050565b600082825260208201905092915050565b6000819050602082019050919050565b61102d81610b01565b82525050565b600061103f8383611024565b60208301905092915050565b6000602082019050919050565b600061106382610ff8565b61106d8185611003565b935061107883611014565b8060005b838110156110a95781516110908882611033565b975061109b8361104b565b92505060018101905061107c565b5085935050505092915050565b600060a0820190506110cb6000830188610d8e565b6110d86020830187610fe9565b81810360408301526110ea8186611058565b90506110f96060830185610ece565b6111066080830184610d8e565b9695505050505050565b6000601f19601f8301169050919050565b61112a82611110565b810181811067ffffffffffffffff8211171561114957611148610f5f565b5b80604052505050565b600061115c610aed565b90506111688282611121565b919050565b600067ffffffffffffffff82111561118857611187610f5f565b5b602082029050602081019050919050565b6000815190506111a881610b49565b92915050565b60006111c16111bc8461116d565b611152565b905080838252602082019050602084028301858111156111e4576111e3610b7f565b5b835b8181101561120d57806111f98882611199565b8452602084019350506020810190506111e6565b5050509392505050565b600082601f83011261122c5761122b610b75565b5b815161123c8482602086016111ae565b91505092915050565b60006020828403121561125b5761125a610af7565b5b600082015167ffffffffffffffff81111561127957611278610afc565b5b61128584828501611217565b91505092915050565b60006020820190506112a36000830184610ece565b92915050565b6000602082840312156112bf576112be610af7565b5b60006112cd84828501611199565b91505092915050565b600082825260208201905092915050565b7f4f6e6c792074686520636f6e7472616374206f776e65722063616e2063616c6c60008201527f20746869732066756e6374696f6e000000000000000000000000000000000000602082015250565b6000611343602e836112d6565b915061134e826112e7565b604082019050919050565b6000602082019050818103600083015261137281611336565b9050919050565b600060608201905061138e6000830186610ece565b61139b6020830185610d8e565b6113a86040830184610d8e565b949350505050565b600081519050919050565b600082825260208201905092915050565b60005b838110156113ea5780820151818401526020810190506113cf565b838111156113f9576000848401525b50505050565b600061140a826113b0565b61141481856113bb565b93506114248185602086016113cc565b61142d81611110565b840191505092915050565b600061ffff82169050919050565b61144f81611438565b82525050565b600060a08201905061146a6000830188610ece565b6114776020830187610ece565b6114846040830186610d8e565b818103606083015261149681856113ff565b90506114a56080830184611446565b969550505050505056fea2646970667358221220ec019329b249b352b7175b12dc17b46f691cc84c8e83676eb0af0c4242d632cd64736f6c634300080a0033",
  "linkReferences": {},
  "deployedLinkReferences": {}
}